{"sourcePath":"/Users/xhkj/Documents/proj/gameproj/ETHDapp/dapp/contracts/Dividend.sol","abi":[{"inputs":[],"constant":true,"name":"OTHERBLOCK1","outputs":[{"type":"uint256","name":""}],"stateMutability":"view","payable":false,"signature":"0x05f951df","type":"function"},{"inputs":[],"constant":true,"name":"OTHERBLOCK2","outputs":[{"type":"uint256","name":""}],"stateMutability":"view","payable":false,"signature":"0x1a0460cd","type":"function"},{"inputs":[],"constant":true,"name":"globalUnit","outputs":[{"type":"uint256","name":"bigPool"},{"type":"uint256","name":"staticPool"},{"type":"uint256","name":"bigPoolCount"},{"type":"uint256","name":"smallPoolCount"}],"stateMutability":"view","payable":false,"signature":"0x1bfc2113","type":"function"},{"inputs":[],"constant":true,"name":"MINER3PERCENT","outputs":[{"type":"uint256","name":""}],"stateMutability":"view","payable":false,"signature":"0x1df33902","type":"function"},{"inputs":[],"constant":true,"name":"isRunning","outputs":[{"type":"bool","name":""}],"stateMutability":"view","payable":false,"signature":"0x2014e5d1","type":"function"},{"inputs":[{"type":"address","name":""}],"constant":true,"name":"globalMinerBalance","outputs":[{"type":"uint256","name":""}],"stateMutability":"view","payable":false,"signature":"0x2d0b41ef","type":"function"},{"inputs":[],"constant":true,"name":"decimals","outputs":[{"type":"uint256","name":""}],"stateMutability":"view","payable":false,"signature":"0x313ce567","type":"function"},{"inputs":[{"type":"address","name":""}],"constant":true,"name":"workers","outputs":[{"type":"address","name":"owner"},{"type":"uint256","name":"createTime"},{"type":"uint256","name":"level"},{"type":"uint256","name":"times"},{"type":"uint256","name":"reqTime"},{"type":"bool","name":"exists"},{"type":"uint256","name":"release"},{"type":"uint256","name":"investAmount"}],"stateMutability":"view","payable":false,"signature":"0x4048a257","type":"function"},{"inputs":[],"constant":true,"name":"BIGBLOCK3","outputs":[{"type":"uint256","name":""}],"stateMutability":"view","payable":false,"signature":"0x5124077d","type":"function"},{"inputs":[],"constant":true,"name":"vip4Map","outputs":[{"type":"uint256","name":"size"}],"stateMutability":"view","payable":false,"signature":"0x64275029","type":"function"},{"inputs":[{"type":"address","name":""}],"constant":true,"name":"miners","outputs":[{"type":"address","name":"owner"},{"type":"uint256","name":"level"},{"type":"uint256","name":"createTime"},{"type":"uint256","name":"reqTime"}],"stateMutability":"view","payable":false,"signature":"0x648ec7b9","type":"function"},{"inputs":[],"constant":true,"name":"vipAddressList","outputs":[{"type":"uint256","name":"size"}],"stateMutability":"view","payable":false,"signature":"0x64dbdd9d","type":"function"},{"inputs":[],"constant":true,"name":"BIGBLOCK1","outputs":[{"type":"uint256","name":""}],"stateMutability":"view","payable":false,"signature":"0x7ab65dbc","type":"function"},{"inputs":[{"type":"uint256","name":""}],"constant":true,"name":"dialySmallPool","outputs":[{"type":"uint256","name":""}],"stateMutability":"view","payable":false,"signature":"0x80879ef3","type":"function"},{"inputs":[],"constant":true,"name":"minerAddressList","outputs":[{"type":"uint256","name":"size"}],"stateMutability":"view","payable":false,"signature":"0x8687355f","type":"function"},{"inputs":[],"constant":true,"name":"MINER2PERCENT","outputs":[{"type":"uint256","name":""}],"stateMutability":"view","payable":false,"signature":"0x88ad7eca","type":"function"},{"inputs":[],"constant":true,"name":"vip2Map","outputs":[{"type":"uint256","name":"size"}],"stateMutability":"view","payable":false,"signature":"0x8aeb3479","type":"function"},{"inputs":[{"type":"address","name":""}],"constant":true,"name":"stats","outputs":[{"type":"uint256","name":"allStatic"},{"type":"uint256","name":"allDynamic"},{"type":"uint256","name":"allSmallPool"},{"type":"uint256","name":"allBigPool"},{"type":"uint256","name":"allTeam"},{"type":"uint256","name":"allVIP1"},{"type":"uint256","name":"allVIP2"},{"type":"uint256","name":"allVIP3"}],"stateMutability":"view","payable":false,"signature":"0x8bcdcbf3","type":"function"},{"inputs":[],"constant":true,"name":"owner","outputs":[{"type":"address","name":""}],"stateMutability":"view","payable":false,"signature":"0x8da5cb5b","type":"function"},{"inputs":[],"constant":true,"name":"MINER1PERCENT","outputs":[{"type":"uint256","name":""}],"stateMutability":"view","payable":false,"signature":"0x90ca15b6","type":"function"},{"inputs":[],"constant":true,"name":"OTHERBLOCK3","outputs":[{"type":"uint256","name":""}],"stateMutability":"view","payable":false,"signature":"0x98d583f4","type":"function"},{"inputs":[],"constant":true,"name":"realseTime","outputs":[{"type":"uint256","name":""}],"stateMutability":"view","payable":false,"signature":"0xa063cc79","type":"function"},{"inputs":[],"constant":true,"name":"BIGBLOCK2","outputs":[{"type":"uint256","name":""}],"stateMutability":"view","payable":false,"signature":"0xa3c2c6e8","type":"function"},{"inputs":[],"constant":true,"name":"BIGBLOCK4","outputs":[{"type":"uint256","name":""}],"stateMutability":"view","payable":false,"signature":"0xac8cba8f","type":"function"},{"inputs":[{"type":"uint256","name":""}],"constant":true,"name":"dialySmallPoolInfo","outputs":[{"type":"uint256","name":"size"},{"type":"uint256","name":"day"}],"stateMutability":"view","payable":false,"signature":"0xb34b6e8a","type":"function"},{"inputs":[{"type":"address","name":""}],"constant":true,"name":"totalInvestMap","outputs":[{"type":"uint256","name":""}],"stateMutability":"view","payable":false,"signature":"0xb97e6113","type":"function"},{"inputs":[],"constant":true,"name":"selfaddr","outputs":[{"type":"address","name":""}],"stateMutability":"view","payable":false,"signature":"0xba752d4f","type":"function"},{"inputs":[{"type":"uint256","name":""}],"constant":true,"name":"dialyBigPool","outputs":[{"type":"uint256","name":""}],"stateMutability":"view","payable":false,"signature":"0xbbab2d9b","type":"function"},{"inputs":[],"constant":true,"name":"tokenaddr","outputs":[{"type":"address","name":""}],"stateMutability":"view","payable":false,"signature":"0xbce934a9","type":"function"},{"inputs":[],"constant":true,"name":"vip1Map","outputs":[{"type":"uint256","name":"size"}],"stateMutability":"view","payable":false,"signature":"0xbf164a53","type":"function"},{"inputs":[{"type":"uint256","name":""}],"constant":true,"name":"dialySmallPoolReqInfo","outputs":[{"type":"uint256","name":"size"},{"type":"uint256","name":"day"}],"stateMutability":"view","payable":false,"signature":"0xc0dffbf9","type":"function"},{"inputs":[{"type":"uint256","name":""}],"constant":true,"name":"staticPercent","outputs":[{"type":"uint256","name":""}],"stateMutability":"view","payable":false,"signature":"0xcae554b3","type":"function"},{"inputs":[],"constant":true,"name":"vip3Map","outputs":[{"type":"uint256","name":"size"}],"stateMutability":"view","payable":false,"signature":"0xd5b977b6","type":"function"},{"inputs":[],"constant":true,"name":"creationTime","outputs":[{"type":"uint256","name":""}],"stateMutability":"view","payable":false,"signature":"0xd8270dce","type":"function"},{"inputs":[{"type":"uint256","name":""}],"constant":true,"name":"dialyBigPoolReqInfo","outputs":[{"type":"uint256","name":"size"},{"type":"uint256","name":"day"}],"stateMutability":"view","payable":false,"signature":"0xdbee6e4b","type":"function"},{"inputs":[{"type":"address","name":""}],"constant":true,"name":"players","outputs":[{"type":"uint256","name":"balance"},{"type":"address","name":"parent"},{"type":"uint256","name":"childrenCount"},{"type":"address","name":"maxChild"},{"type":"uint256","name":"maxNodeInvest"},{"type":"uint256","name":"totalNodeInvest"},{"type":"uint256","name":"myInvest"},{"type":"uint256","name":"lastTotalNodeInvest"},{"type":"bool","name":"exists"},{"type":"address","name":"me"},{"type":"uint256","name":"dynamicAmount"},{"type":"uint256","name":"vipAmount"},{"type":"uint256","name":"miner1Amount"},{"type":"uint256","name":"miner2Amount"}],"stateMutability":"view","payable":false,"signature":"0xe2eb41ff","type":"function"},{"inputs":[],"constant":true,"name":"OTHERBLOCK4","outputs":[{"type":"uint256","name":""}],"stateMutability":"view","payable":false,"signature":"0xe37f75fa","type":"function"},{"inputs":[{"type":"uint256","name":""}],"constant":true,"name":"dialyInvest","outputs":[{"type":"uint256","name":""}],"stateMutability":"view","payable":false,"signature":"0xf6ccdc9f","type":"function"},{"stateMutability":"nonpayable","inputs":[],"signature":"constructor","type":"constructor","payable":false},{"stateMutability":"payable","payable":true,"type":"fallback"},{"inputs":[{"type":"address","name":"_addr"}],"constant":false,"name":"changeOwner","outputs":[],"stateMutability":"nonpayable","payable":false,"signature":"0xa6f9dae1","type":"function"},{"inputs":[{"type":"address","name":"_token"},{"type":"address","name":"_self"}],"constant":false,"name":"setAddr","outputs":[],"stateMutability":"nonpayable","payable":false,"signature":"0xebcb00e0","type":"function"},{"inputs":[{"type":"bool","name":"_running"}],"constant":false,"name":"setRunning","outputs":[],"stateMutability":"nonpayable","payable":false,"signature":"0xdfd200c5","type":"function"},{"inputs":[{"type":"uint256","name":"_timeStamp"}],"constant":true,"name":"getIndexOfDay","outputs":[{"type":"uint256","name":""}],"stateMutability":"view","payable":false,"signature":"0x8f62d4df","type":"function"},{"inputs":[],"constant":true,"name":"getIndexOfNow","outputs":[{"type":"uint256","name":""}],"stateMutability":"view","payable":false,"signature":"0xbf8d55e2","type":"function"},{"inputs":[],"constant":true,"name":"getNextDayElapsed","outputs":[{"type":"uint256","name":""}],"stateMutability":"view","payable":false,"signature":"0x9c2cfd89","type":"function"},{"inputs":[{"type":"uint256","name":"_index"},{"type":"uint256","name":"_count"}],"constant":false,"name":"setMinerConfig","outputs":[],"stateMutability":"nonpayable","payable":false,"signature":"0x36bcd5ec","type":"function"},{"inputs":[],"constant":true,"name":"getMinerConfig","outputs":[{"type":"uint256","name":"_miner1Count"},{"type":"uint256","name":"_miner2Count"},{"type":"uint256","name":"_miner3Count"}],"stateMutability":"view","payable":false,"signature":"0xcbfbeda4","type":"function"},{"inputs":[],"constant":true,"name":"getCurMinerCount","outputs":[{"type":"uint256","name":"_count1"},{"type":"uint256","name":"_count2"},{"type":"uint256","name":"_count3"}],"stateMutability":"view","payable":false,"signature":"0xe6282b10","type":"function"},{"inputs":[{"type":"uint256","name":"_index"},{"type":"uint256","name":"_from"},{"type":"uint256","name":"_to"},{"type":"uint256","name":"_times"}],"constant":false,"name":"setWorkerConfig","outputs":[],"stateMutability":"nonpayable","payable":false,"signature":"0x765aca82","type":"function"},{"inputs":[{"type":"uint256","name":"_index"}],"constant":true,"name":"getWorkerConfig","outputs":[{"type":"uint256","name":"_from"},{"type":"uint256","name":"_to"},{"type":"uint256","name":"_times"}],"stateMutability":"view","payable":false,"signature":"0x611deadf","type":"function"},{"inputs":[{"type":"address","name":"_addr"},{"type":"uint8","name":"_choice"},{"type":"uint256","name":"_value"}],"constant":false,"name":"withdraw","outputs":[],"stateMutability":"nonpayable","payable":false,"signature":"0x044641eb","type":"function"},{"inputs":[{"type":"uint256","name":"_lvl"},{"type":"uint256","name":"_block"},{"type":"uint256","name":"_other"}],"constant":false,"name":"setVIPConfig","outputs":[],"stateMutability":"nonpayable","payable":false,"signature":"0x3d6a75be","type":"function"},{"inputs":[],"constant":false,"name":"withdrawStatic","outputs":[{"type":"uint256","name":""}],"stateMutability":"nonpayable","payable":false,"signature":"0x3f19172a","type":"function"},{"inputs":[{"type":"address","name":"_addr"}],"constant":true,"name":"balanceOfStatic","outputs":[{"type":"uint256","name":""}],"stateMutability":"view","payable":false,"signature":"0x4e12ac40","type":"function"},{"inputs":[{"type":"address","name":"_addr"}],"constant":true,"name":"getMinerLevel","outputs":[{"type":"uint256","name":""}],"stateMutability":"view","payable":false,"signature":"0x9f35bc3e","type":"function"},{"inputs":[{"type":"address","name":"_addr"}],"constant":true,"name":"getVIP","outputs":[{"type":"uint8","name":""}],"stateMutability":"view","payable":false,"signature":"0x759e5ded","type":"function"},{"inputs":[{"type":"address","name":"_addr"}],"constant":true,"name":"isGlobalMiner","outputs":[{"type":"bool","name":""}],"stateMutability":"view","payable":false,"signature":"0x56e721cb","type":"function"},{"inputs":[],"constant":true,"name":"getTeamInfo","outputs":[{"type":"uint256","name":""},{"type":"uint256","name":""},{"type":"uint256","name":""},{"type":"uint256","name":""}],"stateMutability":"view","payable":false,"signature":"0x0c57455a","type":"function"},{"inputs":[{"type":"address","name":"_addr"},{"type":"uint8","name":"_choice"}],"constant":true,"name":"balanceOf","outputs":[{"type":"uint256","name":""}],"stateMutability":"view","payable":false,"signature":"0x67412045","type":"function"},{"inputs":[{"type":"address","name":"_addr"},{"type":"uint256","name":"_lvl"}],"constant":false,"name":"addMiner","outputs":[{"type":"bool","name":""}],"stateMutability":"nonpayable","payable":false,"signature":"0x90276dc7","type":"function"},{"inputs":[{"type":"address","name":"_addr"}],"constant":false,"name":"addGlobalMiner","outputs":[{"type":"bool","name":""}],"stateMutability":"nonpayable","payable":false,"signature":"0x87cc6f08","type":"function"},{"inputs":[{"type":"address","name":"_address"}],"constant":true,"name":"isWorkerOut","outputs":[{"type":"bool","name":""}],"stateMutability":"view","payable":false,"signature":"0xd0d89fa1","type":"function"},{"inputs":[{"type":"uint256","name":"_timestamp"},{"type":"uint256","name":"_percent"}],"constant":false,"name":"setDialyBonus","outputs":[],"stateMutability":"nonpayable","payable":false,"signature":"0x086e68bb","type":"function"},{"inputs":[{"type":"address","name":"_addr"},{"type":"uint256","name":"_index"}],"constant":true,"name":"getDialyBonusHistory","outputs":[{"type":"uint256","name":""}],"stateMutability":"view","payable":false,"signature":"0xbcafd26a","type":"function"},{"inputs":[{"type":"address","name":"_addr"},{"type":"uint256","name":"_index"}],"constant":true,"name":"getBigPoolBonusHistory","outputs":[{"type":"uint256","name":""}],"stateMutability":"view","payable":false,"signature":"0x738eb835","type":"function"},{"inputs":[{"type":"address","name":"_recipient"}],"constant":false,"name":"buy","outputs":[],"stateMutability":"payable","payable":true,"signature":"0xf088d547","type":"function"},{"inputs":[],"constant":false,"name":"kill","outputs":[],"stateMutability":"nonpayable","payable":false,"signature":"0x41c0e1b5","type":"function"}],"compiler":{"version":"0.5.0+commit.1d4f565a.Emscripten.clang","name":"solc"},"devdoc":{"methods":{}},"userdoc":{"methods":{}},"bytecode":"0x6080604052601260005568056bc75e2d631000006001908155681043561a88293000006002819055682b5e3af16b188000006003819055686c6b935b8bbd4000006004556005918255600655686194049f30f720000060075569010f0cf064dd59200000600855600991909155600a819055600b5542620151808101600c5560105534801561008d57600080fd5b50600d8054600160a060020a031916331790556032601755601460185560066019556011805460ff19169055614b80806100c86000396000f3fe6080604052600436106102f25763ffffffff60e060020a600035041663044641eb81146102f457806305f951df14610336578063086e68bb1461035d5780630c57455a1461038d5780631a0460cd146103c85780631bfc2113146103dd5780631df33902146103f25780632014e5d1146104075780632d0b41ef14610430578063313ce5671461046357806336bcd5ec146104785780633d6a75be146104a85780633f19172a146104de5780634048a257146104f357806341c0e1b5146105735780634e12ac40146105885780635124077d146105bb57806356e721cb146105d0578063611deadf14610603578063642750291461064b578063648ec7b91461066057806364dbdd9d146106c357806367412045146106d8578063738eb83514610714578063759e5ded1461074d578063765aca82146107965780637ab65dbc146107d257806380879ef3146107e75780638687355f1461081157806387cc6f081461082657806388ad7eca146108595780638aeb34791461086e5780638bcdcbf3146108835780638da5cb5b146108f75780638f62d4df1461092857806390276dc71461095257806390ca15b61461098b57806398d583f4146109a05780639c2cfd89146109b55780639f35bc3e146109ca578063a063cc79146109fd578063a3c2c6e814610a12578063a6f9dae114610a27578063ac8cba8f14610a5a578063b34b6e8a14610a6f578063b97e611314610ab2578063ba752d4f14610ae5578063bbab2d9b14610afa578063bcafd26a14610b24578063bce934a914610b5d578063bf164a5314610b72578063bf8d55e214610b87578063c0dffbf914610b9c578063cae554b314610bc6578063cbfbeda414610bf0578063d0d89fa114610c05578063d5b977b614610c38578063d8270dce14610c4d578063dbee6e4b14610c62578063dfd200c514610c8c578063e2eb41ff14610cb8578063e37f75fa14610d96578063e6282b1014610dab578063ebcb00e014610dc0578063f088d54714610dfb578063f6ccdc9f14610e21575b005b34801561030057600080fd5b506102f26004803603606081101561031757600080fd5b50600160a060020a038135169060ff6020820135169060400135610e4b565b34801561034257600080fd5b5061034b61122a565b60408051918252519081900360200190f35b34801561036957600080fd5b506102f26004803603604081101561038057600080fd5b5080359060200135611230565b34801561039957600080fd5b506103a2611268565b604080519485526020850193909352838301919091526060830152519081900360800190f35b3480156103d457600080fd5b5061034b61127a565b3480156103e957600080fd5b506103a2611280565b3480156103fe57600080fd5b5061034b61128f565b34801561041357600080fd5b5061041c611295565b604080519115158252519081900360200190f35b34801561043c57600080fd5b5061034b6004803603602081101561045357600080fd5b5035600160a060020a031661129e565b34801561046f57600080fd5b5061034b6112b0565b34801561048457600080fd5b506102f26004803603604081101561049b57600080fd5b50803590602001356112b6565b3480156104b457600080fd5b506102f2600480360360608110156104cb57600080fd5b5080359060208101359060400135611306565b3480156104ea57600080fd5b5061034b61137a565b3480156104ff57600080fd5b506105266004803603602081101561051657600080fd5b5035600160a060020a0316611401565b60408051600160a060020a03909916895260208901979097528787019590955260608701939093526080860191909152151560a085015260c084015260e083015251908190036101000190f35b34801561057f57600080fd5b506102f2611452565b34801561059457600080fd5b5061034b600480360360208110156105ab57600080fd5b5035600160a060020a031661148c565b3480156105c757600080fd5b5061034b611578565b3480156105dc57600080fd5b5061041c600480360360208110156105f357600080fd5b5035600160a060020a031661157e565b34801561060f57600080fd5b5061062d6004803603602081101561062657600080fd5b5035611627565b60408051938452602084019290925282820152519081900360600190f35b34801561065757600080fd5b5061034b6116b1565b34801561066c57600080fd5b506106936004803603602081101561068357600080fd5b5035600160a060020a03166116b7565b60408051600160a060020a0390951685526020850193909352838301919091526060830152519081900360800190f35b3480156106cf57600080fd5b5061034b6116e8565b3480156106e457600080fd5b5061034b600480360360408110156106fb57600080fd5b508035600160a060020a0316906020013560ff166116ee565b34801561072057600080fd5b5061034b6004803603604081101561073757600080fd5b50600160a060020a038135169060200135611872565b34801561075957600080fd5b506107806004803603602081101561077057600080fd5b5035600160a060020a0316611955565b6040805160ff9092168252519081900360200190f35b3480156107a257600080fd5b506102f2600480360360808110156107b957600080fd5b5080359060208101359060408101359060600135611bcd565b3480156107de57600080fd5b5061034b611c5a565b3480156107f357600080fd5b5061034b6004803603602081101561080a57600080fd5b5035611c60565b34801561081d57600080fd5b5061034b611c72565b34801561083257600080fd5b5061041c6004803603602081101561084957600080fd5b5035600160a060020a0316611c78565b34801561086557600080fd5b5061034b611d31565b34801561087a57600080fd5b5061034b611d37565b34801561088f57600080fd5b506108b6600480360360208110156108a657600080fd5b5035600160a060020a0316611d3d565b604080519889526020890197909752878701959095526060870193909352608086019190915260a085015260c084015260e083015251908190036101000190f35b34801561090357600080fd5b5061090c611d80565b60408051600160a060020a039092168252519081900360200190f35b34801561093457600080fd5b5061034b6004803603602081101561094b57600080fd5b5035611d8f565b34801561095e57600080fd5b5061041c6004803603604081101561097557600080fd5b50600160a060020a038135169060200135611dc4565b34801561099757600080fd5b5061034b61240f565b3480156109ac57600080fd5b5061034b612415565b3480156109c157600080fd5b5061034b61241b565b3480156109d657600080fd5b5061034b600480360360208110156109ed57600080fd5b5035600160a060020a0316612430565b348015610a0957600080fd5b5061034b6124eb565b348015610a1e57600080fd5b5061034b6124f1565b348015610a3357600080fd5b506102f260048036036020811015610a4a57600080fd5b5035600160a060020a03166124f7565b348015610a6657600080fd5b5061034b612530565b348015610a7b57600080fd5b50610a9960048036036020811015610a9257600080fd5b5035612536565b6040805192835260208301919091528051918290030190f35b348015610abe57600080fd5b5061034b60048036036020811015610ad557600080fd5b5035600160a060020a0316612552565b348015610af157600080fd5b5061090c612564565b348015610b0657600080fd5b5061034b60048036036020811015610b1d57600080fd5b5035612573565b348015610b3057600080fd5b5061034b60048036036040811015610b4757600080fd5b50600160a060020a038135169060200135612585565b348015610b6957600080fd5b5061090c612668565b348015610b7e57600080fd5b5061034b612677565b348015610b9357600080fd5b5061034b61267d565b348015610ba857600080fd5b50610a9960048036036020811015610bbf57600080fd5b503561268d565b348015610bd257600080fd5b5061034b60048036036020811015610be957600080fd5b50356126a9565b348015610bfc57600080fd5b5061062d6126bb565b348015610c1157600080fd5b5061041c60048036036020811015610c2857600080fd5b5035600160a060020a03166126c9565b348015610c4457600080fd5b5061034b6126f8565b348015610c5957600080fd5b5061034b6126fe565b348015610c6e57600080fd5b50610a9960048036036020811015610c8557600080fd5b5035612704565b348015610c9857600080fd5b506102f260048036036020811015610caf57600080fd5b50351515612720565b348015610cc457600080fd5b50610ceb60048036036020811015610cdb57600080fd5b5035600160a060020a031661274a565b604051808f81526020018e600160a060020a0316600160a060020a031681526020018d81526020018c600160a060020a0316600160a060020a031681526020018b81526020018a81526020018981526020018881526020018715151515815260200186600160a060020a0316600160a060020a031681526020018581526020018481526020018381526020018281526020019e50505050505050505050505050505060405180910390f35b348015610da257600080fd5b5061034b6127c5565b348015610db757600080fd5b5061062d6127cb565b348015610dcc57600080fd5b506102f260048036036040811015610de357600080fd5b50600160a060020a0381358116916020013516612a65565b6102f260048036036020811015610e1157600080fd5b5035600160a060020a0316612aaa565b348015610e2d57600080fd5b5061034b60048036036020811015610e4457600080fd5b5035612d43565b60115460ff161515600114610e5f57600080fd5b600f54600160a060020a03163314610e7657600080fd5b600e54600160a060020a031631811115610e8f57600080fd5b6000826006811115610e9d57fe5b1415610f1257600160a060020a038316600090815260266020526040902054811115610ec857600080fd5b600160a060020a0383166000818152602660205260408082208290555183156108fc0291849190818181858888f19350505050158015610f0c573d6000803e3d6000fd5b50611225565b6002826006811115610f2057fe5b1415610f9c57600160a060020a03831660009081526026602052604090206009810154905401811115610f5257600080fd5b600160a060020a0383166000818152602660205260408082208281556009018290555183156108fc0291849190818181858888f19350505050158015610f0c573d6000803e3d6000fd5b6001826006811115610faa57fe5b141561101f57600160a060020a038316600090815260266020526040902060090154811115610fd857600080fd5b600160a060020a0383166000818152602660205260408082206009018290555183156108fc0291849190818181858888f19350505050158015610f0c573d6000803e3d6000fd5b600382600681111561102d57fe5b14156110a257600160a060020a0383166000908152602660205260409020600a015481111561105b57600080fd5b600160a060020a038316600081815260266020526040808220600a018290555183156108fc0291849190818181858888f19350505050158015610f0c573d6000803e3d6000fd5b60048260068111156110b057fe5b141561111f57600160a060020a0383166000908152604460205260409020548111156110db57600080fd5b600160a060020a0383166000818152604460205260408082208290555183156108fc0291849190818181858888f19350505050158015610f0c573d6000803e3d6000fd5b600682600681111561112d57fe5b14156111a257600160a060020a0383166000908152602660205260409020600b015481111561115b57600080fd5b600160a060020a038316600081815260266020526040808220600b018290555183156108fc0291849190818181858888f19350505050158015610f0c573d6000803e3d6000fd5b60058260068111156111b057fe5b141561122557600160a060020a0383166000908152602660205260409020600c01548111156111de57600080fd5b600160a060020a038316600081815260266020526040808220600c018290555183156108fc0291849190818181858888f19350505050158015610f0c573d6000803e3d6000fd5b505050565b60055481565b600d54600160a060020a0316331461124757600080fd5b600061125283611d8f565b6000908152602960205260409020919091555050565b603454603754603a54603d5490919293565b60065481565b60135460145460155460165484565b600b5481565b60115460ff1681565b60446020526000908152604090205481565b60005481565b600d54600160a060020a031633146112cd57600080fd5b81600114156112e0576017819055611302565b81600214156112f3576018819055611302565b81600314156113025760198190555b5050565b600d54600160a060020a0316331461131d57600080fd5b82600114156113355760018290556005819055611225565b826002141561134d5760028290556006819055611225565b82600314156113655760038290556007819055611225565b82600414156112255760049190915560085550565b33600081815260286020526040812060050154909190829060ff16156113fb5760006113a461267d565b90506113af8361148c565b600160a060020a03841660009081526028602090815260408083206004810195909555602682528083208054850190556006909401805484019055602790529190912080548201905590505b91505090565b60286020526000908152604090208054600182015460028301546003840154600485015460058601546006870154600790970154600160a060020a0390961696949593949293919260ff9091169188565b600d54600160a060020a0316331461146957600080fd5b600d54600160a060020a031633141561148a57600d54600160a060020a0316ff5b565b600160a060020a0381166000908152602860205260408120600501548190819060ff16156115645760006114be61267d565b600160a060020a0386166000908152602860205260409020600401549091506114e686612d55565b9250600083111561156157805b8281101561155f576000818152602960205260408120549081116115155750600a5b600160a060020a0388166000908152602860205260409020600701546103e89082020495909501948486106115565761154e8686612dab565b95505061155f565b506001016114f3565b505b50505b61156e8282612dab565b925050505b919050565b60035481565b6040805160e060020a633c9a3acb02815260416004820152600160a060020a0383166024820152905160009173__AddressMapping________________________91633c9a3acb91604480820192602092909190829003018186803b1580156115e657600080fd5b505af41580156115fa573d6000803e3d6000fd5b505050506040513d602081101561161057600080fd5b50511561161f57506001611573565b506000919050565b60008060008360011415611649575050601a54601b54601c54919250906116aa565b8360021415611666575050601d54601e54601f54919250906116aa565b8360031415611683575050602054602154602254919250906116aa565b83600414156116a0575050602354602454602554919250906116aa565b5060009150819050805b9193909250565b603d5481565b602a602052600090815260409020805460018201546002830154600390930154600160a060020a0390921692909184565b60405481565b6000808260068111156116fd57fe5b14156117225750600160a060020a03821660009081526026602052604090205461186c565b600182600681111561173057fe5b14156117585750600160a060020a03821660009081526026602052604090206009015461186c565b600282600681111561176657fe5b14156117935750600160a060020a038216600090815260266020526040902080546009909101540161186c565b60038260068111156117a157fe5b14156117c95750600160a060020a0382166000908152602660205260409020600a015461186c565b60048260068111156117d757fe5b14156117fc5750600160a060020a03821660009081526044602052604090205461186c565b600682600681111561180a57fe5b14156118325750600160a060020a0382166000908152602660205260409020600b015461186c565b600582600681111561184057fe5b14156118685750600160a060020a0382166000908152602660205260409020600c015461186c565b5060005b92915050565b600081815260306020908152604080832081517f64ea0c5b0000000000000000000000000000000000000000000000000000000081526004810191909152600160a060020a0386166024820152905173__BonusMapping__________________________926364ea0c5b9260448082019391829003018186803b1580156118f857600080fd5b505af415801561190c573d6000803e3d6000fd5b505050506040513d602081101561192257600080fd5b50511561186857506000818152603060209081526040808320600160a060020a038616845290915290206001015461186c565b6040805160e060020a633c9a3acb02815260326004820152600160a060020a0383166024820152905160009173__AddressMapping________________________91633c9a3acb91604480820192602092909190829003018186803b1580156119bd57600080fd5b505af41580156119d1573d6000803e3d6000fd5b505050506040513d60208110156119e757600080fd5b5051156119f657506001611573565b6040805160e060020a633c9a3acb02815260356004820152600160a060020a0384166024820152905173__AddressMapping________________________91633c9a3acb916044808301926020929190829003018186803b158015611a5a57600080fd5b505af4158015611a6e573d6000803e3d6000fd5b505050506040513d6020811015611a8457600080fd5b505115611a9357506002611573565b6040805160e060020a633c9a3acb02815260386004820152600160a060020a0384166024820152905173__AddressMapping________________________91633c9a3acb916044808301926020929190829003018186803b158015611af757600080fd5b505af4158015611b0b573d6000803e3d6000fd5b505050506040513d6020811015611b2157600080fd5b505115611b3057506003611573565b6040805160e060020a633c9a3acb028152603b6004820152600160a060020a0384166024820152905173__AddressMapping________________________91633c9a3acb916044808301926020929190829003018186803b158015611b9457600080fd5b505af4158015611ba8573d6000803e3d6000fd5b505050506040513d6020811015611bbe57600080fd5b50511561161f57506004611573565b600d54600160a060020a03163314611be457600080fd5b8360011415611c0157601a839055601b829055601c819055611c54565b8360021415611c1e57601d839055601e829055601f819055611c54565b8360031415611c3b57602083905560218290556022819055611c54565b8360041415611c54576023839055602482905560258190555b50505050565b60015481565b602c6020526000908152604090205481565b60435481565b600d54600090600160a060020a03163314611c9257600080fd5b6040805160e060020a6392c6a2fd02815260416004820152600160a060020a038416602482015260036044820152905173__AddressMapping________________________916392c6a2fd916064808301926020929190829003018186803b158015611cfd57600080fd5b505af4158015611d11573d6000803e3d6000fd5b505050506040513d6020811015611d2757600080fd5b5060019392505050565b600a5481565b60375481565b6027602052600090815260409020805460018201546002830154600384015460048501546005860154600687015460079097015495969495939492939192909188565b600d54600160a060020a031681565b600080610e10601884040490506000610e106018601054811515611daf57fe5b04811515611db957fe5b049091039392505050565b600f54600090600160a060020a03163314611dde57600080fd5b604080517f1b83128600000000000000000000000000000000000000000000000000000000815260416004820152905160009182918291829173__AddressMapping________________________91631b831286916024808301926020929190829003018186803b158015611e5257600080fd5b505af4158015611e66573d6000803e3d6000fd5b505050506040513d6020811015611e7c57600080fd5b505190505b73__AddressMapping________________________63c7a3774d6041836040518363ffffffff1660e060020a028152600401808381526020018281526020019250505060206040518083038186803b158015611edc57600080fd5b505af4158015611ef0573d6000803e3d6000fd5b505050506040513d6020811015611f0657600080fd5b50511561207657604080517fabdbf9cd0000000000000000000000000000000000000000000000000000000081526041600482015260248101839052815160009273__AddressMapping________________________9263abdbf9cd9260448083019392829003018186803b158015611f7e57600080fd5b505af4158015611f92573d6000803e3d6000fd5b505050506040513d6040811015611fa857600080fd5b506020015190506001811415611fc357600185019450611fe7565b8060021415611fd757600184019350611fe7565b8060031415611fe7576001830192505b5073__AddressMapping________________________63b91637d36041836040518363ffffffff1660e060020a028152600401808381526020018281526020019250505060206040518083038186803b15801561204357600080fd5b505af4158015612057573d6000803e3d6000fd5b505050506040513d602081101561206d57600080fd5b50519050611e81565b50600061208287612430565b905080861161209857600094505050505061186c565b856001141561214857601754841015612143576040805160e060020a6392c6a2fd02815260416004820152600160a060020a038916602482015260016044820152905173__AddressMapping________________________916392c6a2fd916064808301926020929190829003018186803b15801561211657600080fd5b505af415801561212a573d6000803e3d6000fd5b505050506040513d602081101561214057600080fd5b50505b612402565b856002141561226d576018548310156121f8576040805160e060020a6392c6a2fd02815260416004820152600160a060020a038916602482015260026044820152905173__AddressMapping________________________916392c6a2fd916064808301926020929190829003018186803b1580156121c657600080fd5b505af41580156121da573d6000803e3d6000fd5b505050506040513d60208110156121f057600080fd5b506121439050565b601754841015612143576040805160e060020a6392c6a2fd02815260416004820152600160a060020a038916602482015260016044820152905173__AddressMapping________________________916392c6a2fd916064808301926020929190829003018186803b15801561211657600080fd5b8560031415612402576019548210156122eb576040805160e060020a6392c6a2fd02815260416004820152600160a060020a038916602482015260036044820152905173__AddressMapping________________________916392c6a2fd916064808301926020929190829003018186803b15801561211657600080fd5b601854831015612360576040805160e060020a6392c6a2fd02815260416004820152600160a060020a038916602482015260026044820152905173__AddressMapping________________________916392c6a2fd916064808301926020929190829003018186803b15801561211657600080fd5b601754841015612402576040805160e060020a6392c6a2fd02815260416004820152600160a060020a038916602482015260016044820152905173__AddressMapping________________________916392c6a2fd916064808301926020929190829003018186803b1580156123d557600080fd5b505af41580156123e9573d6000803e3d6000fd5b505050506040513d60208110156123ff57600080fd5b50505b5060019695505050505050565b60095481565b60075481565b42620151806001610e10601884040401020390565b6040805160e060020a633c9a3acb02815260416004820152600160a060020a0383166024820152905160009173__AddressMapping________________________91633c9a3acb91604480820192602092909190829003018186803b15801561249857600080fd5b505af41580156124ac573d6000803e3d6000fd5b505050506040513d60208110156124c257600080fd5b50511561161f5750600160a060020a038116600090815260416020526040902060010154611573565b600c5481565b60025481565b600d54600160a060020a0316331461250e57600080fd5b600d8054600160a060020a031916600160a060020a0392909216919091179055565b60045481565b602b602052600090815260409020600281015460039091015482565b60316020526000908152604090205481565b600e54600160a060020a031681565b602d6020526000908152604090205481565b6000818152602f6020908152604080832081517f64ea0c5b0000000000000000000000000000000000000000000000000000000081526004810191909152600160a060020a0386166024820152905173__BonusMapping__________________________926364ea0c5b9260448082019391829003018186803b15801561260b57600080fd5b505af415801561261f573d6000803e3d6000fd5b505050506040513d602081101561263557600080fd5b50511561186857506000818152602f60209081526040808320600160a060020a038616845290915290206001015461186c565b600f54600160a060020a031681565b60345481565b600061268842611d8f565b905090565b602f602052600090815260409020600281015460039091015482565b60296020526000908152604090205481565b601754601854601954909192565b60006126d482612dc3565b15156126e257506001611573565b60006126ed83612d55565b600010159392505050565b603a5481565b60105481565b6030602052600090815260409020600281015460039091015482565b600d54600160a060020a0316331461273757600080fd5b6011805460ff1916911515919091179055565b602660205260009081526040902080546001820154600283015460038401546004850154600586015460068701546007880154600889015460098a0154600a8b0154600b8c0154600c909c01549a9b600160a060020a039a8b169b999a98891699979896979596949560ff851695610100909504909416938e565b60085481565b6000806000806000905060008090506000809050600073__AddressMapping________________________631b83128660416040518263ffffffff1660e060020a0281526004018082815260200191505060206040518083038186803b15801561283457600080fd5b505af4158015612848573d6000803e3d6000fd5b505050506040513d602081101561285e57600080fd5b505190505b73__AddressMapping________________________63c7a3774d6041836040518363ffffffff1660e060020a028152600401808381526020018281526020019250505060206040518083038186803b1580156128be57600080fd5b505af41580156128d2573d6000803e3d6000fd5b505050506040513d60208110156128e857600080fd5b505115612a5857604080517fabdbf9cd0000000000000000000000000000000000000000000000000000000081526041600482015260248101839052815160009273__AddressMapping________________________9263abdbf9cd9260448083019392829003018186803b15801561296057600080fd5b505af4158015612974573d6000803e3d6000fd5b505050506040513d604081101561298a57600080fd5b5060200151905060018114156129a5576001850194506129c9565b80600214156129b9576001840193506129c9565b80600314156129c9576001830192505b5073__AddressMapping________________________63b91637d36041836040518363ffffffff1660e060020a028152600401808381526020018281526020019250505060206040518083038186803b158015612a2557600080fd5b505af4158015612a39573d6000803e3d6000fd5b505050506040513d6020811015612a4f57600080fd5b50519050612863565b5091945092509050909192565b600d54600160a060020a03163314612a7c57600080fd5b600f8054600160a060020a03938416600160a060020a031991821617909155600e8054929093169116179055565b60115460ff161515600114612abe57600080fd5b33600160a060020a0382161415612ad457600080fd5b601a54341015612ae357600080fd5b612aec81612def565b1515612b0257612afc6000612e15565b50612b0d565b612b0b81612e15565b505b6000612b1833612dc3565b90508015612b2557600080fd5b600080612b3134612f7e565b909250905060008211612b4357600080fd5b60008111612b5057600080fd5b612b5a8282613014565b336000818152602660205260409020600601805434908101909155612b829190600190613091565b612b8a613348565b612b926135ef565b6000612b9c61267d565b905060006064601e60583402829004600f02829004026000848152602b602081815260408084203380865281845282862060010154958a905293835281517fd4b3ae7100000000000000000000000000000000000000000000000000000000815260048101919091526024810193909352348401604484015251949093049450909273__BonusMapping__________________________9263d4b3ae719260648082019391829003018186803b158015612c5557600080fd5b505af4158015612c69573d6000803e3d6000fd5b505050506040513d6020811015612c7f57600080fd5b50600090506064604660583402829004600f02829004026000868152602c60209081526040808320805489019055602d8252808320805489019055602e9091529020805434019055601380549290910491820190819055909150612cee9069065a4da25d3016c0000090612dab565b601355612cf9613870565b600c54670de0b6b3a7640000340490612d1d90612a30830201620151804201612dab565b600c556000600019860110612d3857612d3860018603613c24565b505050505050505050565b602e6020526000908152604090205481565b600160a060020a03811660009081526028602052604081206005015460ff161561161f5750600160a060020a03811660009081526028602052604090206006810154600382015460079092015490910203611573565b6000818310612dba5781612dbc565b825b9392505050565b600160a060020a03811660009081526028602052604081206005015460ff161561161f57506001611573565b600160a060020a031660009081526026602052604090206008015460ff16151560011490565b6000600160a060020a03821615612ef157600160a060020a03821660009081526026602052604090206008015460ff161515612e5357506000611573565b3360009081526026602052604090206008015460ff16151560011415612e7b57506000611573565b600160a060020a0382166000818152602660205260408082206002018054600190810190915533808452919092206008810180549184018054600160a060020a03191690951790945560ff191690911774ffffffffffffffffffffffffffffffffffffffff001916610100909102179055612f76565b3360009081526026602052604090206008015460ff16151560011415612f1957506000611573565b33600081815260266020526040812060018082018054600160a060020a031916905560088201805460029093019390935560ff199091161774ffffffffffffffffffffffffffffffffffffffff0019166101009092029190911790555b506001919050565b601a546000908190819081908510801590612f9b5750601b548511155b15612fad575050601c5460019061300a565b601d5485118015612fc05750601e548511155b15612fd2575050601f5460029061300a565b60205485118015612fe557506021548511155b15612ff757505060225460039061300a565b60235485111561300a5750506025546004905b9092509050915091565b3360008181526028602052604090208054600160a060020a031916909117905561303c61267d565b3360009081526028602052604090206001015561305761267d565b336000908152602860205260409020600481019190915560028101929092556003820155346007820155600501805460ff19166001179055565b600160a060020a038084166000908152602660205260409020600190810154909116845b603283111580156130ce5750600160a060020a03821615155b1561334057600160a060020a038082166000908152602660205260408082208584168352912060038101549192909116151561313657600381018054600160a060020a031916600160a060020a0385161790556006820154600583015401600482015561317a565b81600601548260050154018160040154101561317a57600381018054600160a060020a031916600160a060020a038516179055600682015460058301540160048201555b861561330b57603285101561319857600581018054870190556131a3565b600781018054870190555b84600114156131e857600160a060020a03841660009081526028602052604090206005015460ff16156131e3576131e1846064600c89025b046143bb565b505b613262565b846002141561322457600160a060020a03841660009081526028602052604090206005015460ff16156131e3576131e1846064600889026131db565b846003141561326257600160a060020a03841660009081526028602052604090206005015460ff161561326257613260846064600589026131db565b505b600160a060020a0384166000908152604160205260409020600190810154908114156132c657600954600b830180546064928a02929092049182019055600160a060020a038616600090815260276020526040902060050180549091019055613309565b806002141561330957600a54600c830180546064928a02929092049182019055600160a060020a0386166000908152602760205260409020600601805490910190555b505b61331484614443565b505050600160a060020a03808216600090815260266020526040902060019081015493019216906130b5565b505050505050565b600080600080613357346148f7565b9350935093509350600073__AddressMapping________________________631b831286603e6040518263ffffffff1660e060020a0281526004018082815260200191505060206040518083038186803b1580156133b457600080fd5b505af41580156133c8573d6000803e3d6000fd5b505050506040513d60208110156133de57600080fd5b505190505b73__AddressMapping________________________63c7a3774d603e836040518363ffffffff1660e060020a028152600401808381526020018281526020019250505060206040518083038186803b15801561343e57600080fd5b505af4158015613452573d6000803e3d6000fd5b505050506040513d602081101561346857600080fd5b5051156135e85760008073__AddressMapping________________________63abdbf9cd603e856040518363ffffffff1660e060020a0281526004018083815260200182815260200192505050604080518083038186803b1580156134cc57600080fd5b505af41580156134e0573d6000803e3d6000fd5b505050506040513d60408110156134f657600080fd5b5080516020909101519092509050600181141561351d5761351782886149d8565b50613558565b80600214156135305761351782876149d8565b80600314156135435761351782866149d8565b80600414156135585761355682856149d8565b505b505073__AddressMapping________________________63b91637d3603e836040518363ffffffff1660e060020a028152600401808381526020018281526020019250505060206040518083038186803b1580156135b557600080fd5b505af41580156135c9573d6000803e3d6000fd5b505050506040513d60208110156135df57600080fd5b505190506133e3565b5050505050565b600073__AddressMapping________________________631b83128660416040518263ffffffff1660e060020a0281526004018082815260200191505060206040518083038186803b15801561364457600080fd5b505af4158015613658573d6000803e3d6000fd5b505050506040513d602081101561366e57600080fd5b505190505b73__AddressMapping________________________63c7a3774d6041836040518363ffffffff1660e060020a028152600401808381526020018281526020019250505060206040518083038186803b1580156136ce57600080fd5b505af41580156136e2573d6000803e3d6000fd5b505050506040513d60208110156136f857600080fd5b50511561386d5760008073__AddressMapping________________________63abdbf9cd6041856040518363ffffffff1660e060020a0281526004018083815260200182815260200192505050604080518083038186803b15801561375c57600080fd5b505af4158015613770573d6000803e3d6000fd5b505050506040513d604081101561378657600080fd5b5080516020909101519092509050600381106137dd57600b54600160a060020a0383166000908152604460209081526040808320805460643490960295909504948501905560279091529020600701805490910190555b505073__AddressMapping________________________63b91637d36041836040518363ffffffff1660e060020a028152600401808381526020018281526020019250505060206040518083038186803b15801561383a57600080fd5b505af415801561384e573d6000803e3d6000fd5b505050506040513d602081101561386457600080fd5b50519050613673565b50565b600061387a61267d565b6000818152602b60205260409020600201549091506032101561386d576000818152602b6020908152604080832081517f60002057000000000000000000000000000000000000000000000000000000008152600481019190915290518392839273__BonusMapping__________________________92636000205792602480840193919291829003018186803b15801561391457600080fd5b505af4158015613928573d6000803e3d6000fd5b505050506040513d602081101561393e57600080fd5b505190505b73__BonusMapping__________________________63e26b79d5602b6000878152602001908152602001600020836040518363ffffffff1660e060020a028152600401808381526020018281526020019250505060206040518083038186803b1580156139af57600080fd5b505af41580156139c3573d6000803e3d6000fd5b505050506040513d60208110156139d957600080fd5b505115613b61576000848152602b602052604080822081517f2f696eeb0000000000000000000000000000000000000000000000000000000081526004810191909152602481018490528151839273__BonusMapping__________________________92632f696eeb9260448083019392829003018186803b158015613a5e57600080fd5b505af4158015613a72573d6000803e3d6000fd5b505050506040513d6040811015613a8857600080fd5b5080516020909101519092509050600160a060020a0385161515613ab157809350819450613ac0565b83811015613ac0578093508194505b505073__BonusMapping__________________________6352271ad6602b6000878152602001908152602001600020836040518363ffffffff1660e060020a028152600401808381526020018281526020019250505060206040518083038186803b158015613b2e57600080fd5b505af4158015613b42573d6000803e3d6000fd5b505050506040513d6020811015613b5857600080fd5b50519050613943565b50600160a060020a0382161515611225576000838152602b602090815260409182902082517f4163a83b0000000000000000000000000000000000000000000000000000000081526004810191909152600160a060020a0385166024820152915173__BonusMapping__________________________92634163a83b926044808301939192829003018186803b158015613bfa57600080fd5b505af4158015613c0e573d6000803e3d6000fd5b505050506040513d60208110156135e857600080fd5b6000613c2e61267d565b6000838152602c6020526040812054919250101561130257600080600073__BonusMapping__________________________6360002057602b60008881526020019081526020016000206040518263ffffffff1660e060020a0281526004018082815260200191505060206040518083038186803b158015613caf57600080fd5b505af4158015613cc3573d6000803e3d6000fd5b505050506040513d6020811015613cd957600080fd5b505190505b73__BonusMapping__________________________63e26b79d5602b6000888152602001908152602001600020836040518363ffffffff1660e060020a028152600401808381526020018281526020019250505060206040518083038186803b158015613d4a57600080fd5b505af4158015613d5e573d6000803e3d6000fd5b505050506040513d6020811015613d7457600080fd5b505115613efc576000858152602b602052604080822081517f2f696eeb0000000000000000000000000000000000000000000000000000000081526004810191909152602481018490528151839273__BonusMapping__________________________92632f696eeb9260448083019392829003018186803b158015613df957600080fd5b505af4158015613e0d573d6000803e3d6000fd5b505050506040513d6040811015613e2357600080fd5b5080516020909101519092509050600160a060020a0385161515613e4c57809350819450613e5b565b83811115613e5b578093508194505b505073__BonusMapping__________________________6352271ad6602b6000888152602001908152602001600020836040518363ffffffff1660e060020a028152600401808381526020018281526020019250505060206040518083038186803b158015613ec957600080fd5b505af4158015613edd573d6000803e3d6000fd5b505050506040513d6020811015613ef357600080fd5b50519050613cde565b50600160a060020a03821615611c54576000848152602c6020908152604080832054602b9092529091206002908101549081106142c657600060026001830384811515613f4557fe5b04811515613f4f57fe5b049050600073__BonusMapping__________________________6360002057602b60008b81526020019081526020016000206040518263ffffffff1660e060020a0281526004018082815260200191505060206040518083038186803b158015613fb857600080fd5b505af4158015613fcc573d6000803e3d6000fd5b505050506040513d6020811015613fe257600080fd5b505190505b73__BonusMapping__________________________63e26b79d5602b60008b8152602001908152602001600020836040518363ffffffff1660e060020a028152600401808381526020018281526020019250505060206040518083038186803b15801561405357600080fd5b505af4158015614067573d6000803e3d6000fd5b505050506040513d602081101561407d57600080fd5b5051156142c3576000888152602b602052604080822081517f2f696eeb000000000000000000000000000000000000000000000000000000008152600481019190915260248101849052815173__BonusMapping__________________________92632f696eeb9260448082019391829003018186803b15801561410057600080fd5b505af4158015614114573d6000803e3d6000fd5b505050506040513d604081101561412a57600080fd5b50519050600160a060020a038082169088161461422357600160a060020a0381166000818152602660209081526040808320805488018155602783528184206002018054890190558c8452602f83529281902081517fd4b3ae71000000000000000000000000000000000000000000000000000000008152600481019190915260248101949094526044840187905251919273__BonusMapping__________________________9263d4b3ae7192606480840193919291829003018186803b1580156141f557600080fd5b505af4158015614209573d6000803e3d6000fd5b505050506040513d602081101561421f57600080fd5b5050505b5073__BonusMapping__________________________6352271ad6602b60008b8152602001908152602001600020836040518363ffffffff1660e060020a028152600401808381526020018281526020019250505060206040518083038186803b15801561429057600080fd5b505af41580156142a4573d6000803e3d6000fd5b505050506040513d60208110156142ba57600080fd5b50519050613fe7565b50505b600160a060020a038416600081815260266020908152604080832080546002808904918201835560278552838620018054820190556016805460010190558a8552602f84529382902082517fd4b3ae7100000000000000000000000000000000000000000000000000000000815260048101919091526024810195909552604485018490529051909373__BonusMapping__________________________9263d4b3ae7192606480840193829003018186803b15801561438557600080fd5b505af4158015614399573d6000803e3d6000fd5b505050506040513d60208110156143af57600080fd5b50505050505050505050565b600160a060020a03821660009081526028602052604081206005015460ff16156118685760006143ea84612d55565b90506143f68184612dab565b600160a060020a03851660009081526026602090815260408083206009018054850190556028825280832060060180548501905560279091529020600101805482019055915061186c9050565b600160a060020a0381166000908152603e60205260408120600101549061446983614a62565b90508082101561122557816001141561452857604080517f5a70ffa000000000000000000000000000000000000000000000000000000000815260326004820152600160a060020a0385166024820152905173__AddressMapping________________________91635a70ffa0916044808301926020929190829003018186803b1580156144f657600080fd5b505af415801561450a573d6000803e3d6000fd5b505050506040513d602081101561452057600080fd5b5061465b9050565b81600214156145ab57604080517f5a70ffa000000000000000000000000000000000000000000000000000000000815260356004820152600160a060020a0385166024820152905173__AddressMapping________________________91635a70ffa0916044808301926020929190829003018186803b1580156144f657600080fd5b816003141561465b57604080517f5a70ffa000000000000000000000000000000000000000000000000000000000815260386004820152600160a060020a0385166024820152905173__AddressMapping________________________91635a70ffa0916044808301926020929190829003018186803b15801561462e57600080fd5b505af4158015614642573d6000803e3d6000fd5b505050506040513d602081101561465857600080fd5b50505b8060011415614701576040805160e060020a6392c6a2fd02815260326004820152600160a060020a038516602482015260016044820152905173__AddressMapping________________________916392c6a2fd916064808301926020929190829003018186803b1580156146cf57600080fd5b505af41580156146e3573d6000803e3d6000fd5b505050506040513d60208110156146f957600080fd5b5061488c9050565b8060021415614775576040805160e060020a6392c6a2fd02815260356004820152600160a060020a038516602482015260026044820152905173__AddressMapping________________________916392c6a2fd916064808301926020929190829003018186803b1580156146cf57600080fd5b80600314156147e9576040805160e060020a6392c6a2fd02815260386004820152600160a060020a038516602482015260036044820152905173__AddressMapping________________________916392c6a2fd916064808301926020929190829003018186803b1580156146cf57600080fd5b806004141561488c576040805160e060020a6392c6a2fd028152603b600482810191909152600160a060020a03861660248301526044820152905173__AddressMapping________________________916392c6a2fd916064808301926020929190829003018186803b15801561485f57600080fd5b505af4158015614873573d6000803e3d6000fd5b505050506040513d602081101561488957600080fd5b50505b6040805160e060020a6392c6a2fd028152603e6004820152600160a060020a038516602482015260448101839052905173__AddressMapping________________________916392c6a2fd916064808301926020929190829003018186803b158015613bfa57600080fd5b603d54603a546037546034546000938493849384938493849384938493810182018301929082018101918101908484111561494a5760648460038f0281151561493c57fe5b0481151561494657fe5b0497505b60008311156149715760648360038f0281151561496357fe5b0481151561496d57fe5b0496505b60008211156149985760648260038f0281151561498a57fe5b0481151561499457fe5b0495505b60008111156149bf5760648160038f028115156149b157fe5b048115156149bb57fe5b0494505b50959b948c019a50505090880196508601945092505050565b600160a060020a03821660009081526028602052604081206005015460ff1615611868576000614a0784612d55565b90506000614a158285612dab565b600160a060020a0386166000908152602660209081526040808320600a0180548501905560288252808320600601805485019055602790915290206004018054909101905550905061186c565b600160a060020a0381166000908152602660205260408120600881015460ff161515614a92576000915050611573565b60058101546007820154600480840154905491909201918083039111801590614abd57506008548110155b15614ace5760049350505050611573565b600354836004015410158015614ae657506007548110155b15614af75760039350505050611573565b600254836004015410158015614b0f57506006548110155b15614b205760029350505050611573565b600154836004015410158015614b3857506005548110155b15614b495760019350505050611573565b50600094935050505056fea165627a7a723058203291ba74f9725fd4b8e5f12cb6cdeaed496a1f27c1018e063e0efe98b183bbcc0029","updatedAt":"2019-06-28T05:29:35.067Z","schemaVersion":"3.0.1","contractName":"Dividend"}