{"sourcePath":"/Users/xhkj/Documents/proj/gameproj/ETHDapp/dapp/contracts/GHFToken.sol","abi":[{"inputs":[],"constant":true,"name":"name","outputs":[{"type":"string","name":""}],"stateMutability":"view","payable":false,"signature":"0x06fdde03","type":"function"},{"inputs":[],"constant":true,"name":"minter","outputs":[{"type":"address","name":""}],"stateMutability":"view","payable":false,"signature":"0x07546172","type":"function"},{"inputs":[{"type":"address","name":"_spender"},{"type":"uint256","name":"_value"}],"constant":false,"name":"approve","outputs":[{"type":"bool","name":""}],"stateMutability":"nonpayable","payable":false,"signature":"0x095ea7b3","type":"function"},{"inputs":[],"constant":true,"name":"totalSupply","outputs":[{"type":"uint256","name":""}],"stateMutability":"view","payable":false,"signature":"0x18160ddd","type":"function"},{"inputs":[],"constant":true,"name":"isRunning","outputs":[{"type":"bool","name":""}],"stateMutability":"view","payable":false,"signature":"0x2014e5d1","type":"function"},{"inputs":[{"type":"address","name":"_from"},{"type":"address","name":"_to"},{"type":"uint256","name":"_value"}],"constant":false,"name":"transferFrom","outputs":[{"type":"bool","name":""}],"stateMutability":"nonpayable","payable":false,"signature":"0x23b872dd","type":"function"},{"inputs":[],"constant":true,"name":"INITIAL_SUPPLY","outputs":[{"type":"uint256","name":""}],"stateMutability":"view","payable":false,"signature":"0x2ff2e9dc","type":"function"},{"inputs":[],"constant":true,"name":"decimals","outputs":[{"type":"uint256","name":""}],"stateMutability":"view","payable":false,"signature":"0x313ce567","type":"function"},{"inputs":[],"constant":true,"name":"totalBurn","outputs":[{"type":"uint256","name":""}],"stateMutability":"view","payable":false,"signature":"0x3c9f861d","type":"function"},{"inputs":[],"constant":true,"name":"miner1ETH","outputs":[{"type":"uint256","name":""}],"stateMutability":"view","payable":false,"signature":"0x5d8a3ca3","type":"function"},{"inputs":[{"type":"address","name":"_spender"},{"type":"uint256","name":"_subtractedValue"}],"constant":false,"name":"decreaseApproval","outputs":[{"type":"bool","name":""}],"stateMutability":"nonpayable","payable":false,"signature":"0x66188463","type":"function"},{"inputs":[{"type":"address","name":"_owner"}],"constant":true,"name":"balanceOf","outputs":[{"type":"uint256","name":""}],"stateMutability":"view","payable":false,"signature":"0x70a08231","type":"function"},{"inputs":[],"constant":true,"name":"owner","outputs":[{"type":"address","name":""}],"stateMutability":"view","payable":false,"signature":"0x8da5cb5b","type":"function"},{"inputs":[],"constant":true,"name":"symbol","outputs":[{"type":"string","name":""}],"stateMutability":"view","payable":false,"signature":"0x95d89b41","type":"function"},{"inputs":[{"type":"address","name":"_to"},{"type":"uint256","name":"_value"}],"constant":false,"name":"transfer","outputs":[{"type":"bool","name":""}],"stateMutability":"nonpayable","payable":false,"signature":"0xa9059cbb","type":"function"},{"inputs":[],"constant":true,"name":"selfaddr","outputs":[{"type":"address","name":""}],"stateMutability":"view","payable":false,"signature":"0xba752d4f","type":"function"},{"inputs":[{"type":"address","name":"_spender"},{"type":"uint256","name":"_addedValue"}],"constant":false,"name":"increaseApproval","outputs":[{"type":"bool","name":""}],"stateMutability":"nonpayable","payable":false,"signature":"0xd73dd623","type":"function"},{"inputs":[{"type":"address","name":"_owner"},{"type":"address","name":"_spender"}],"constant":true,"name":"allowance","outputs":[{"type":"uint256","name":""}],"stateMutability":"view","payable":false,"signature":"0xdd62ed3e","type":"function"},{"inputs":[],"constant":true,"name":"miner3ETH","outputs":[{"type":"uint256","name":""}],"stateMutability":"view","payable":false,"signature":"0xfa8785dc","type":"function"},{"inputs":[],"constant":true,"name":"GASPRICE","outputs":[{"type":"uint256","name":""}],"stateMutability":"view","payable":false,"signature":"0xff138a9e","type":"function"},{"inputs":[],"constant":true,"name":"miner2ETH","outputs":[{"type":"uint256","name":""}],"stateMutability":"view","payable":false,"signature":"0xff47821b","type":"function"},{"stateMutability":"nonpayable","inputs":[{"type":"address","name":"_dividend"}],"signature":"constructor","type":"constructor","payable":false},{"stateMutability":"payable","payable":true,"type":"fallback"},{"inputs":[{"indexed":true,"type":"address","name":"owner"},{"indexed":true,"type":"address","name":"spender"},{"indexed":false,"type":"uint256","name":"value"}],"type":"event","name":"Approval","anonymous":false,"signature":"0x8c5be1e5ebec7d5bd14f71427d1e84f3dd0314c0f7b2291e5b200ac8c7c3b925"},{"inputs":[{"indexed":true,"type":"address","name":"from"},{"indexed":true,"type":"address","name":"to"},{"indexed":false,"type":"uint256","name":"value"}],"type":"event","name":"Transfer","anonymous":false,"signature":"0xddf252ad1be2c89b69c2b068fc378daa952ba7f163c4a11628f55a4df523b3ef"},{"inputs":[{"type":"bool","name":"_running"}],"constant":false,"name":"setRunning","outputs":[],"stateMutability":"nonpayable","payable":false,"signature":"0xdfd200c5","type":"function"},{"inputs":[{"type":"address","name":"_addr"}],"constant":false,"name":"changeOwner","outputs":[],"stateMutability":"nonpayable","payable":false,"signature":"0xa6f9dae1","type":"function"},{"inputs":[{"type":"uint256","name":"_ticket"}],"constant":false,"name":"setTicket","outputs":[{"type":"bool","name":""}],"stateMutability":"nonpayable","payable":false,"signature":"0xa38018f6","type":"function"},{"inputs":[{"type":"address","name":"_addr"}],"constant":false,"name":"setSelfAddr","outputs":[],"stateMutability":"nonpayable","payable":false,"signature":"0x652d5077","type":"function"},{"inputs":[],"constant":true,"name":"getTicket","outputs":[{"type":"uint256","name":""}],"stateMutability":"view","payable":false,"signature":"0xc002c4d6","type":"function"},{"inputs":[{"type":"uint256","name":"_index"},{"type":"uint256","name":"_value"}],"constant":false,"name":"setMiner","outputs":[],"stateMutability":"nonpayable","payable":false,"signature":"0x29c93de2","type":"function"},{"inputs":[{"type":"uint8","name":"_choice"}],"constant":true,"name":"calWithdraw","outputs":[{"type":"uint256","name":""}],"stateMutability":"view","payable":false,"signature":"0x2d23ad72","type":"function"},{"inputs":[{"type":"uint8","name":"_choice"}],"constant":false,"name":"withdraw","outputs":[{"type":"bool","name":""}],"stateMutability":"nonpayable","payable":false,"signature":"0xc6ab5d90","type":"function"},{"inputs":[{"type":"uint256","name":"_value"}],"constant":false,"name":"transferToStaticPool","outputs":[],"stateMutability":"nonpayable","payable":false,"signature":"0x5475e54a","type":"function"},{"inputs":[],"constant":false,"name":"kill","outputs":[],"stateMutability":"nonpayable","payable":false,"signature":"0x41c0e1b5","type":"function"}],"compiler":{"version":"0.5.0+commit.1d4f565a.Emscripten.clang","name":"solc"},"devdoc":{"methods":{"approve(address,uint256)":{"params":{"_spender":"The address which will spend the funds.","_value":"The amount of tokens to be spent."},"details":"Approve the passed address to spend the specified amount of tokens on behalf of msg.sender. Beware that changing an allowance with this method brings the risk that someone may use both the old and the new allowance by unfortunate transaction ordering. One possible solution to mitigate this race condition is to first reduce the spender's allowance to 0 and set the desired value afterwards: https://github.com/ethereum/EIPs/issues/20#issuecomment-263524729"},"increaseApproval(address,uint256)":{"params":{"_spender":"The address which will spend the funds.","_addedValue":"The amount of tokens to increase the allowance by."},"details":"Increase the amount of tokens that an owner allowed to a spender. approve should be called when allowed[_spender] == 0. To increment allowed value is better to use this function to avoid 2 calls (and wait until the first transaction is mined) From MonolithDAO Token.sol"},"balanceOf(address)":{"return":"An uint256 representing the amount owned by the passed address.","params":{"_owner":"The address to query the the balance of."},"details":"Gets the balance of the specified address."},"totalSupply()":{"details":"Total number of tokens in existence"},"allowance(address,address)":{"return":"A uint256 specifying the amount of tokens still available for the spender.","params":{"_spender":"address The address which will spend the funds.","_owner":"address The address which owns the funds."},"details":"Function to check the amount of tokens that an owner allowed to a spender."},"decreaseApproval(address,uint256)":{"params":{"_spender":"The address which will spend the funds.","_subtractedValue":"The amount of tokens to decrease the allowance by."},"details":"Decrease the amount of tokens that an owner allowed to a spender. approve should be called when allowed[_spender] == 0. To decrement allowed value is better to use this function to avoid 2 calls (and wait until the first transaction is mined) From MonolithDAO Token.sol"},"transfer(address,uint256)":{"params":{"_value":"The amount to be transferred.","_to":"The address to transfer to."},"details":"Transfer token for a specified address"},"transferFrom(address,address,uint256)":{"params":{"_value":"uint256 the amount of tokens to be transferred","_from":"address The address which you want to send tokens from","_to":"address The address which you want to transfer to"},"details":"Transfer tokens from one address to another"}}},"schemaVersion":"3.0.1","bytecode":"0x60c0604052600860808190527f474846546f6b656e00000000000000000000000000000000000000000000000060a09081526200004091600391906200016d565b506040805180820190915260038082527f4748460000000000000000000000000000000000000000000000000000000000602090920191825262000087916004916200016d565b5060126005556a295be96e64066972000000600655610535600c556801158e460913d00000600d5568056bc75e2d63100000600e55681b1ae4d6e2ef500000600f5560086010556011805460ff19169055348015620000e557600080fd5b50604051602080620016a4833981018060405260208110156200010757600080fd5b505160065460018190553360008181526020819052604090209190915560088054600160a060020a03199081168317909155600780548216909217909155600a8054600160a060020a0390931692821683179055600b8054909116909117905562000212565b828054600181600116156101000203166002900490600052602060002090601f016020900481019282601f10620001b057805160ff1916838001178555620001e0565b82800160010185558215620001e0579182015b82811115620001e0578251825591602001919060010190620001c3565b50620001ee929150620001f2565b5090565b6200020f91905b80821115620001ee5760008155600101620001f9565b90565b61148280620002226000396000f3fe60806040526004361061018a5763ffffffff7c010000000000000000000000000000000000000000000000000000000060003504166306fdde038114610495578063075461721461051f578063095ea7b31461055057806318160ddd1461059d5780632014e5d1146105c457806323b872dd146105d957806329c93de21461061c5780632d23ad721461064e5780632ff2e9dc1461067b578063313ce567146106905780633c9f861d146106a557806341c0e1b5146106ba5780635475e54a146106cf5780635d8a3ca3146106f9578063652d50771461070e578063661884631461074157806370a082311461077a5780638da5cb5b146107ad57806395d89b41146107c2578063a38018f6146107d7578063a6f9dae114610801578063a9059cbb14610834578063ba752d4f1461086d578063c002c4d614610882578063c6ab5d9014610897578063d73dd623146108c4578063dd62ed3e146108fd578063dfd200c514610938578063fa8785dc14610964578063ff138a9e14610979578063ff47821b1461098e575b60115460ff16151560011461019e57600080fd5b60006101b5600c54346109a390919063ffffffff16565b6007549091503390600160a060020a0316808214156101d357600080fd5b600160a060020a0381166000908152602081905260409020548311156101f857600080fd5b600160a060020a038216151561020d57600080fd5b600160a060020a038116600090815260208190526040902054610236908463ffffffff6109d216565b600160a060020a03808316600090815260208190526040808220939093559084168152205461026b908463ffffffff6109e416565b600160a060020a038316600090815260208190526040902055600f54341061032c57600b54604080517f90276dc7000000000000000000000000000000000000000000000000000000008152336004820152600360248201529051600160a060020a03909216916390276dc7916044808201926020929091908290030181600087803b1580156102fa57600080fd5b505af115801561030e573d6000803e3d6000fd5b505050506040513d602081101561032457600080fd5b506104459050565b600e5434106103a257600b54604080517f90276dc7000000000000000000000000000000000000000000000000000000008152336004820152600260248201529051600160a060020a03909216916390276dc7916044808201926020929091908290030181600087803b1580156102fa57600080fd5b600d54341061044557600b54604080517f90276dc7000000000000000000000000000000000000000000000000000000008152336004820152600160248201529051600160a060020a03909216916390276dc7916044808201926020929091908290030181600087803b15801561041857600080fd5b505af115801561042c573d6000803e3d6000fd5b505050506040513d602081101561044257600080fd5b50505b81600160a060020a031681600160a060020a03167fddf252ad1be2c89b69c2b068fc378daa952ba7f163c4a11628f55a4df523b3ef856040518082815260200191505060405180910390a3505050005b3480156104a157600080fd5b506104aa6109f1565b6040805160208082528351818301528351919283929083019185019080838360005b838110156104e45781810151838201526020016104cc565b50505050905090810190601f1680156105115780820380516001836020036101000a031916815260200191505b509250505060405180910390f35b34801561052b57600080fd5b50610534610a7f565b60408051600160a060020a039092168252519081900360200190f35b34801561055c57600080fd5b506105896004803603604081101561057357600080fd5b50600160a060020a038135169060200135610a8e565b604080519115158252519081900360200190f35b3480156105a957600080fd5b506105b2610af4565b60408051918252519081900360200190f35b3480156105d057600080fd5b50610589610afa565b3480156105e557600080fd5b50610589600480360360608110156105fc57600080fd5b50600160a060020a03813581169160208101359091169060400135610b03565b34801561062857600080fd5b5061064c6004803603604081101561063f57600080fd5b5080359060200135610c78565b005b34801561065a57600080fd5b506105b26004803603602081101561067157600080fd5b503560ff16610cb1565b34801561068757600080fd5b506105b2610d84565b34801561069c57600080fd5b506105b2610d8a565b3480156106b157600080fd5b506105b2610d90565b3480156106c657600080fd5b5061064c610d96565b3480156106db57600080fd5b5061064c600480360360208110156106f257600080fd5b5035610dd0565b34801561070557600080fd5b506105b2610e37565b34801561071a57600080fd5b5061064c6004803603602081101561073157600080fd5b5035600160a060020a0316610e3d565b34801561074d57600080fd5b506105896004803603604081101561076457600080fd5b50600160a060020a038135169060200135610e83565b34801561078657600080fd5b506105b26004803603602081101561079d57600080fd5b5035600160a060020a0316610f72565b3480156107b957600080fd5b50610534610f8d565b3480156107ce57600080fd5b506104aa610f9c565b3480156107e357600080fd5b50610589600480360360208110156107fa57600080fd5b5035610ff7565b34801561080d57600080fd5b5061064c6004803603602081101561082457600080fd5b5035600160a060020a031661101a565b34801561084057600080fd5b506105896004803603604081101561085757600080fd5b50600160a060020a038135169060200135611060565b34801561087957600080fd5b5061053461113f565b34801561088e57600080fd5b506105b261114e565b3480156108a357600080fd5b50610589600480360360208110156108ba57600080fd5b503560ff16611154565b3480156108d057600080fd5b50610589600480360360408110156108e757600080fd5b50600160a060020a038135169060200135611356565b34801561090957600080fd5b506105b26004803603604081101561092057600080fd5b50600160a060020a03813581169160200135166113ef565b34801561094457600080fd5b5061064c6004803603602081101561095b57600080fd5b5035151561141a565b34801561097057600080fd5b506105b2611444565b34801561098557600080fd5b506105b261144a565b34801561099a57600080fd5b506105b2611450565b60008215156109b4575060006109cc565b508181028183828115156109c457fe5b04146109cc57fe5b92915050565b6000828211156109de57fe5b50900390565b818101828110156109cc57fe5b6003805460408051602060026001851615610100026000190190941693909304601f81018490048402820184019092528181529291830182828015610a775780601f10610a4c57610100808354040283529160200191610a77565b820191906000526020600020905b815481529060010190602001808311610a5a57829003601f168201915b505050505081565b600754600160a060020a031681565b336000818152600260209081526040808320600160a060020a038716808552908352818420869055815186815291519394909390927f8c5be1e5ebec7d5bd14f71427d1e84f3dd0314c0f7b2291e5b200ac8c7c3b925928290030190a350600192915050565b60015490565b60115460ff1681565b600160a060020a038316600090815260208190526040812054821115610b2857600080fd5b600160a060020a0384166000908152600260209081526040808320338452909152902054821115610b5857600080fd5b600160a060020a0383161515610b6d57600080fd5b600160a060020a038416600090815260208190526040902054610b96908363ffffffff6109d216565b600160a060020a038086166000908152602081905260408082209390935590851681522054610bcb908363ffffffff6109e416565b600160a060020a03808516600090815260208181526040808320949094559187168152600282528281203382529091522054610c0d908363ffffffff6109d216565b600160a060020a03808616600081815260026020908152604080832033845282529182902094909455805186815290519287169391927fddf252ad1be2c89b69c2b068fc378daa952ba7f163c4a11628f55a4df523b3ef929181900390910190a35060019392505050565b8160011415610c8b57600d819055610cad565b8160021415610c9e57600e819055610cad565b8160031415610cad57600f8190555b5050565b60115460009060ff161515600114610cc857600080fd5b600b546040517f674120450000000000000000000000000000000000000000000000000000000081523360048201818152600093600160a060020a031692636741204592918791602401826006811115610d1e57fe5b60ff1681526020019250505060206040518083038186803b158015610d4257600080fd5b505afa158015610d56573d6000803e3d6000fd5b505050506040513d6020811015610d6c57600080fd5b5051600c546010546064920291909104029392505050565b60065481565b60055481565b60125481565b600854600160a060020a03163314610dad57600080fd5b600854600160a060020a0316331415610dce57600854600160a060020a0316ff5b565b600854600160a060020a03163314610de757600080fd5b600954600160a060020a0316318111610e3457600a54604051600160a060020a039091169082156108fc029083906000818181858888f19350505050158015610cad573d6000803e3d6000fd5b50565b600d5481565b600854600160a060020a03163314610e5457600080fd5b6009805473ffffffffffffffffffffffffffffffffffffffff1916600160a060020a0392909216919091179055565b336000908152600260209081526040808320600160a060020a0386168452909152812054808310610ed757336000908152600260209081526040808320600160a060020a0388168452909152812055610f0c565b610ee7818463ffffffff6109d216565b336000908152600260209081526040808320600160a060020a03891684529091529020555b336000818152600260209081526040808320600160a060020a0389168085529083529281902054815190815290519293927f8c5be1e5ebec7d5bd14f71427d1e84f3dd0314c0f7b2291e5b200ac8c7c3b925929181900390910190a35060019392505050565b600160a060020a031660009081526020819052604090205490565b600854600160a060020a031681565b6004805460408051602060026001851615610100026000190190941693909304601f81018490048402820184019092528181529291830182828015610a775780601f10610a4c57610100808354040283529160200191610a77565b600854600090600160a060020a0316331461101157600080fd5b50600c55600190565b600854600160a060020a0316331461103157600080fd5b6008805473ffffffffffffffffffffffffffffffffffffffff1916600160a060020a0392909216919091179055565b3360009081526020819052604081205482111561107c57600080fd5b600160a060020a038316151561109157600080fd5b336000908152602081905260409020546110b1908363ffffffff6109d216565b3360009081526020819052604080822092909255600160a060020a038516815220546110e3908363ffffffff6109e416565b600160a060020a038416600081815260208181526040918290209390935580518581529051919233927fddf252ad1be2c89b69c2b068fc378daa952ba7f163c4a11628f55a4df523b3ef9281900390910190a350600192915050565b600954600160a060020a031681565b600c5490565b60115460009060ff16151560011461116b57600080fd5b600b546040517f6741204500000000000000000000000000000000000000000000000000000000815233600482018181529092600092600160a060020a0390911691636741204591859188916024018260068111156111c657fe5b60ff1681526020019250505060206040518083038186803b1580156111ea57600080fd5b505afa1580156111fe573d6000803e3d6000fd5b505050506040513d602081101561121457600080fd5b5051600c54601054600160a060020a038516600090815260208190526040902054929350606490840204029081111561124c57600080fd5b600754600160a060020a038481169116141561126757600080fd5b600160a060020a038316600090815260208190526040902054611290908263ffffffff6109d216565b600160a060020a0380851660009081526020819052604090819020929092556012805484019055600b5491517f044641eb0000000000000000000000000000000000000000000000000000000081523360048201818152939092169263044641eb92918991879160240183600681111561130657fe5b60ff1681526020018281526020019350505050600060405180830381600087803b15801561133357600080fd5b505af1158015611347573d6000803e3d6000fd5b50600198975050505050505050565b336000908152600260209081526040808320600160a060020a038616845290915281205461138a908363ffffffff6109e416565b336000818152600260209081526040808320600160a060020a0389168085529083529281902085905580519485525191937f8c5be1e5ebec7d5bd14f71427d1e84f3dd0314c0f7b2291e5b200ac8c7c3b925929081900390910190a350600192915050565b600160a060020a03918216600090815260026020908152604080832093909416825291909152205490565b600854600160a060020a0316331461143157600080fd5b6011805460ff1916911515919091179055565b600f5481565b60105481565b600e548156fea165627a7a7230582011ebec71076acb75b7d820ba6ccaffefcec6006875ff88769b440be4643003300029","updatedAt":"2019-06-28T03:46:07.998Z","userdoc":{"methods":{}},"contractName":"GHFToken"}